{
  "_format": "hh-sol-artifact-1",
  "contractName": "MyNftGame",
  "sourceName": "contracts/MyNftGame.sol",
  "abi": [
    {
      "inputs": [
        {
          "internalType": "string[]",
          "name": "characterNames",
          "type": "string[]"
        },
        {
          "internalType": "string[]",
          "name": "characterImageURIs",
          "type": "string[]"
        },
        {
          "internalType": "string[]",
          "name": "characterRace",
          "type": "string[]"
        },
        {
          "internalType": "string[]",
          "name": "characterRole",
          "type": "string[]"
        },
        {
          "internalType": "string[]",
          "name": "characterGender",
          "type": "string[]"
        },
        {
          "internalType": "uint256[]",
          "name": "characterHp",
          "type": "uint256[]"
        },
        {
          "internalType": "uint256[]",
          "name": "characterLevel",
          "type": "uint256[]"
        },
        {
          "internalType": "string",
          "name": "bossName",
          "type": "string"
        },
        {
          "internalType": "string",
          "name": "bossImageURI",
          "type": "string"
        },
        {
          "internalType": "uint256",
          "name": "bossHp",
          "type": "uint256"
        },
        {
          "internalType": "uint256",
          "name": "bossLevel",
          "type": "uint256"
        }
      ],
      "stateMutability": "nonpayable",
      "type": "constructor"
    },
    {
      "anonymous": false,
      "inputs": [
        {
          "indexed": true,
          "internalType": "address",
          "name": "owner",
          "type": "address"
        },
        {
          "indexed": true,
          "internalType": "address",
          "name": "approved",
          "type": "address"
        },
        {
          "indexed": true,
          "internalType": "uint256",
          "name": "tokenId",
          "type": "uint256"
        }
      ],
      "name": "Approval",
      "type": "event"
    },
    {
      "anonymous": false,
      "inputs": [
        {
          "indexed": true,
          "internalType": "address",
          "name": "owner",
          "type": "address"
        },
        {
          "indexed": true,
          "internalType": "address",
          "name": "operator",
          "type": "address"
        },
        {
          "indexed": false,
          "internalType": "bool",
          "name": "approved",
          "type": "bool"
        }
      ],
      "name": "ApprovalForAll",
      "type": "event"
    },
    {
      "anonymous": false,
      "inputs": [
        {
          "indexed": false,
          "internalType": "uint256",
          "name": "newBossHp",
          "type": "uint256"
        },
        {
          "indexed": false,
          "internalType": "uint256",
          "name": "newPlayerHp",
          "type": "uint256"
        }
      ],
      "name": "AttackComplete",
      "type": "event"
    },
    {
      "anonymous": false,
      "inputs": [
        {
          "indexed": false,
          "internalType": "address",
          "name": "sender",
          "type": "address"
        },
        {
          "indexed": false,
          "internalType": "uint256",
          "name": "tokenId",
          "type": "uint256"
        },
        {
          "indexed": false,
          "internalType": "uint256",
          "name": "characterIndex",
          "type": "uint256"
        }
      ],
      "name": "CharacterNFTMinted",
      "type": "event"
    },
    {
      "anonymous": false,
      "inputs": [
        {
          "indexed": true,
          "internalType": "address",
          "name": "from",
          "type": "address"
        },
        {
          "indexed": true,
          "internalType": "address",
          "name": "to",
          "type": "address"
        },
        {
          "indexed": true,
          "internalType": "uint256",
          "name": "tokenId",
          "type": "uint256"
        }
      ],
      "name": "Transfer",
      "type": "event"
    },
    {
      "inputs": [
        {
          "internalType": "address",
          "name": "to",
          "type": "address"
        },
        {
          "internalType": "uint256",
          "name": "tokenId",
          "type": "uint256"
        }
      ],
      "name": "approve",
      "outputs": [],
      "stateMutability": "nonpayable",
      "type": "function"
    },
    {
      "inputs": [],
      "name": "attackBoss",
      "outputs": [],
      "stateMutability": "nonpayable",
      "type": "function"
    },
    {
      "inputs": [
        {
          "internalType": "address",
          "name": "owner",
          "type": "address"
        }
      ],
      "name": "balanceOf",
      "outputs": [
        {
          "internalType": "uint256",
          "name": "",
          "type": "uint256"
        }
      ],
      "stateMutability": "view",
      "type": "function"
    },
    {
      "inputs": [],
      "name": "bigBoss",
      "outputs": [
        {
          "internalType": "string",
          "name": "name",
          "type": "string"
        },
        {
          "internalType": "string",
          "name": "imageURI",
          "type": "string"
        },
        {
          "internalType": "uint256",
          "name": "hp",
          "type": "uint256"
        },
        {
          "internalType": "uint256",
          "name": "maxHp",
          "type": "uint256"
        },
        {
          "internalType": "uint256",
          "name": "level",
          "type": "uint256"
        }
      ],
      "stateMutability": "view",
      "type": "function"
    },
    {
      "inputs": [],
      "name": "checkIfUserHasNFT",
      "outputs": [
        {
          "components": [
            {
              "internalType": "uint256",
              "name": "characterIndex",
              "type": "uint256"
            },
            {
              "internalType": "string",
              "name": "name",
              "type": "string"
            },
            {
              "internalType": "string",
              "name": "imageURI",
              "type": "string"
            },
            {
              "internalType": "string",
              "name": "race",
              "type": "string"
            },
            {
              "internalType": "string",
              "name": "role",
              "type": "string"
            },
            {
              "internalType": "string",
              "name": "gender",
              "type": "string"
            },
            {
              "internalType": "uint256",
              "name": "hp",
              "type": "uint256"
            },
            {
              "internalType": "uint256",
              "name": "maxHp",
              "type": "uint256"
            },
            {
              "internalType": "uint256",
              "name": "level",
              "type": "uint256"
            }
          ],
          "internalType": "struct MyNftGame.CharacterAttributes",
          "name": "",
          "type": "tuple"
        }
      ],
      "stateMutability": "view",
      "type": "function"
    },
    {
      "inputs": [],
      "name": "getAllDefaultCharacters",
      "outputs": [
        {
          "components": [
            {
              "internalType": "uint256",
              "name": "characterIndex",
              "type": "uint256"
            },
            {
              "internalType": "string",
              "name": "name",
              "type": "string"
            },
            {
              "internalType": "string",
              "name": "imageURI",
              "type": "string"
            },
            {
              "internalType": "string",
              "name": "race",
              "type": "string"
            },
            {
              "internalType": "string",
              "name": "role",
              "type": "string"
            },
            {
              "internalType": "string",
              "name": "gender",
              "type": "string"
            },
            {
              "internalType": "uint256",
              "name": "hp",
              "type": "uint256"
            },
            {
              "internalType": "uint256",
              "name": "maxHp",
              "type": "uint256"
            },
            {
              "internalType": "uint256",
              "name": "level",
              "type": "uint256"
            }
          ],
          "internalType": "struct MyNftGame.CharacterAttributes[]",
          "name": "",
          "type": "tuple[]"
        }
      ],
      "stateMutability": "view",
      "type": "function"
    },
    {
      "inputs": [
        {
          "internalType": "uint256",
          "name": "tokenId",
          "type": "uint256"
        }
      ],
      "name": "getApproved",
      "outputs": [
        {
          "internalType": "address",
          "name": "",
          "type": "address"
        }
      ],
      "stateMutability": "view",
      "type": "function"
    },
    {
      "inputs": [],
      "name": "getBigBoss",
      "outputs": [
        {
          "components": [
            {
              "internalType": "string",
              "name": "name",
              "type": "string"
            },
            {
              "internalType": "string",
              "name": "imageURI",
              "type": "string"
            },
            {
              "internalType": "uint256",
              "name": "hp",
              "type": "uint256"
            },
            {
              "internalType": "uint256",
              "name": "maxHp",
              "type": "uint256"
            },
            {
              "internalType": "uint256",
              "name": "level",
              "type": "uint256"
            }
          ],
          "internalType": "struct MyNftGame.BigBoss",
          "name": "",
          "type": "tuple"
        }
      ],
      "stateMutability": "view",
      "type": "function"
    },
    {
      "inputs": [
        {
          "internalType": "address",
          "name": "owner",
          "type": "address"
        },
        {
          "internalType": "address",
          "name": "operator",
          "type": "address"
        }
      ],
      "name": "isApprovedForAll",
      "outputs": [
        {
          "internalType": "bool",
          "name": "",
          "type": "bool"
        }
      ],
      "stateMutability": "view",
      "type": "function"
    },
    {
      "inputs": [
        {
          "internalType": "uint256",
          "name": "_characterIndex",
          "type": "uint256"
        }
      ],
      "name": "mintCharacterNFT",
      "outputs": [],
      "stateMutability": "nonpayable",
      "type": "function"
    },
    {
      "inputs": [],
      "name": "name",
      "outputs": [
        {
          "internalType": "string",
          "name": "",
          "type": "string"
        }
      ],
      "stateMutability": "view",
      "type": "function"
    },
    {
      "inputs": [
        {
          "internalType": "uint256",
          "name": "",
          "type": "uint256"
        }
      ],
      "name": "nftHolderAttributes",
      "outputs": [
        {
          "internalType": "uint256",
          "name": "characterIndex",
          "type": "uint256"
        },
        {
          "internalType": "string",
          "name": "name",
          "type": "string"
        },
        {
          "internalType": "string",
          "name": "imageURI",
          "type": "string"
        },
        {
          "internalType": "string",
          "name": "race",
          "type": "string"
        },
        {
          "internalType": "string",
          "name": "role",
          "type": "string"
        },
        {
          "internalType": "string",
          "name": "gender",
          "type": "string"
        },
        {
          "internalType": "uint256",
          "name": "hp",
          "type": "uint256"
        },
        {
          "internalType": "uint256",
          "name": "maxHp",
          "type": "uint256"
        },
        {
          "internalType": "uint256",
          "name": "level",
          "type": "uint256"
        }
      ],
      "stateMutability": "view",
      "type": "function"
    },
    {
      "inputs": [
        {
          "internalType": "address",
          "name": "",
          "type": "address"
        }
      ],
      "name": "nftHolders",
      "outputs": [
        {
          "internalType": "uint256",
          "name": "",
          "type": "uint256"
        }
      ],
      "stateMutability": "view",
      "type": "function"
    },
    {
      "inputs": [
        {
          "internalType": "uint256",
          "name": "tokenId",
          "type": "uint256"
        }
      ],
      "name": "ownerOf",
      "outputs": [
        {
          "internalType": "address",
          "name": "",
          "type": "address"
        }
      ],
      "stateMutability": "view",
      "type": "function"
    },
    {
      "inputs": [
        {
          "internalType": "address",
          "name": "from",
          "type": "address"
        },
        {
          "internalType": "address",
          "name": "to",
          "type": "address"
        },
        {
          "internalType": "uint256",
          "name": "tokenId",
          "type": "uint256"
        }
      ],
      "name": "safeTransferFrom",
      "outputs": [],
      "stateMutability": "nonpayable",
      "type": "function"
    },
    {
      "inputs": [
        {
          "internalType": "address",
          "name": "from",
          "type": "address"
        },
        {
          "internalType": "address",
          "name": "to",
          "type": "address"
        },
        {
          "internalType": "uint256",
          "name": "tokenId",
          "type": "uint256"
        },
        {
          "internalType": "bytes",
          "name": "_data",
          "type": "bytes"
        }
      ],
      "name": "safeTransferFrom",
      "outputs": [],
      "stateMutability": "nonpayable",
      "type": "function"
    },
    {
      "inputs": [
        {
          "internalType": "address",
          "name": "operator",
          "type": "address"
        },
        {
          "internalType": "bool",
          "name": "approved",
          "type": "bool"
        }
      ],
      "name": "setApprovalForAll",
      "outputs": [],
      "stateMutability": "nonpayable",
      "type": "function"
    },
    {
      "inputs": [
        {
          "internalType": "bytes4",
          "name": "interfaceId",
          "type": "bytes4"
        }
      ],
      "name": "supportsInterface",
      "outputs": [
        {
          "internalType": "bool",
          "name": "",
          "type": "bool"
        }
      ],
      "stateMutability": "view",
      "type": "function"
    },
    {
      "inputs": [],
      "name": "symbol",
      "outputs": [
        {
          "internalType": "string",
          "name": "",
          "type": "string"
        }
      ],
      "stateMutability": "view",
      "type": "function"
    },
    {
      "inputs": [
        {
          "internalType": "uint256",
          "name": "_tokenId",
          "type": "uint256"
        }
      ],
      "name": "tokenURI",
      "outputs": [
        {
          "internalType": "string",
          "name": "",
          "type": "string"
        }
      ],
      "stateMutability": "view",
      "type": "function"
    },
    {
      "inputs": [
        {
          "internalType": "address",
          "name": "from",
          "type": "address"
        },
        {
          "internalType": "address",
          "name": "to",
          "type": "address"
        },
        {
          "internalType": "uint256",
          "name": "tokenId",
          "type": "uint256"
        }
      ],
      "name": "transferFrom",
      "outputs": [],
      "stateMutability": "nonpayable",
      "type": "function"
    }
  ],
  "bytecode": "0x60806040523480156200001157600080fd5b506040516200656738038062006567833981810160405281019062000037919062000d60565b6040518060400160405280600681526020017f4865726f657300000000000000000000000000000000000000000000000000008152506040518060400160405280600481526020017f4845524f000000000000000000000000000000000000000000000000000000008152508160009080519060200190620000bb92919062000af3565b508060019080519060200190620000d492919062000af3565b5050506040518060a0016040528085815260200184815260200183815260200183815260200182815250600960008201518160000190805190602001906200011e92919062000af3565b5060208201518160010190805190602001906200013d92919062000af3565b50604082015181600201556060820151816003015560808201518160040155905050620002c06040518060600160405280602a81526020016200653d602a9139600960000180546200018f906200117a565b80601f0160208091040260200160405190810160405280929190818152602001828054620001bd906200117a565b80156200020e5780601f10620001e2576101008083540402835291602001916200020e565b820191906000526020600020905b815481529060010190602001808311620001f057829003601f168201915b5050505050600960020154600960010180546200022b906200117a565b80601f016020809104026020016040519081016040528092919081815260200182805462000259906200117a565b8015620002aa5780601f106200027e57610100808354040283529160200191620002aa565b820191906000526020600020905b8154815290600101906020018083116200028c57829003601f168201915b505050505062000a0860201b6200258c1760201c565b60005b8b51811015620009df5760076040518061012001604052808381526020018e84815181106200031b577f4e487b7100000000000000000000000000000000000000000000000000000000600052603260045260246000fd5b602002602001015181526020018d848151811062000362577f4e487b7100000000000000000000000000000000000000000000000000000000600052603260045260246000fd5b602002602001015181526020018c8481518110620003a9577f4e487b7100000000000000000000000000000000000000000000000000000000600052603260045260246000fd5b602002602001015181526020018b8481518110620003f0577f4e487b7100000000000000000000000000000000000000000000000000000000600052603260045260246000fd5b602002602001015181526020018a848151811062000437577f4e487b7100000000000000000000000000000000000000000000000000000000600052603260045260246000fd5b602002602001015181526020018984815181106200047e577f4e487b7100000000000000000000000000000000000000000000000000000000600052603260045260246000fd5b60200260200101518152602001898481518110620004c5577f4e487b7100000000000000000000000000000000000000000000000000000000600052603260045260246000fd5b602002602001015181526020018884815181106200050c577f4e487b7100000000000000000000000000000000000000000000000000000000600052603260045260246000fd5b602002602001015181525090806001815401808255809150506001900390600052602060002090600902016000909190919091506000820151816000015560208201518160010190805190602001906200056892919062000af3565b5060408201518160020190805190602001906200058792919062000af3565b506060820151816003019080519060200190620005a692919062000af3565b506080820151816004019080519060200190620005c592919062000af3565b5060a0820151816005019080519060200190620005e492919062000af3565b5060c0820151816006015560e082015181600701556101008201518160080155505060006007828154811062000643577f4e487b7100000000000000000000000000000000000000000000000000000000600052603260045260246000fd5b9060005260206000209060090201604051806101200160405290816000820154815260200160018201805462000679906200117a565b80601f0160208091040260200160405190810160405280929190818152602001828054620006a7906200117a565b8015620006f85780601f10620006cc57610100808354040283529160200191620006f8565b820191906000526020600020905b815481529060010190602001808311620006da57829003601f168201915b5050505050815260200160028201805462000713906200117a565b80601f016020809104026020016040519081016040528092919081815260200182805462000741906200117a565b8015620007925780601f10620007665761010080835404028352916020019162000792565b820191906000526020600020905b8154815290600101906020018083116200077457829003601f168201915b50505050508152602001600382018054620007ad906200117a565b80601f0160208091040260200160405190810160405280929190818152602001828054620007db906200117a565b80156200082c5780601f1062000800576101008083540402835291602001916200082c565b820191906000526020600020905b8154815290600101906020018083116200080e57829003601f168201915b5050505050815260200160048201805462000847906200117a565b80601f016020809104026020016040519081016040528092919081815260200182805462000875906200117a565b8015620008c65780601f106200089a57610100808354040283529160200191620008c6565b820191906000526020600020905b815481529060010190602001808311620008a857829003601f168201915b50505050508152602001600582018054620008e1906200117a565b80601f01602080910402602001604051908101604052809291908181526020018280546200090f906200117a565b8015620009605780601f10620009345761010080835404028352916020019162000960565b820191906000526020600020905b8154815290600101906020018083116200094257829003601f168201915b5050505050815260200160068201548152602001600782015481526020016008820154815250509050620009c7604051806060016040528060258152602001620065186025913982602001518360c00151846040015162000a0860201b6200258c1760201c565b50600181620009d79190620010dd565b9050620002c3565b50620009f7600662000ab460201b6200262e1760201c565b505050505050505050505062001268565b62000aae8484848460405160240162000a25949392919062000f9a565b6040516020818303038152906040527f8d142cdd000000000000000000000000000000000000000000000000000000007bffffffffffffffffffffffffffffffffffffffffffffffffffffffff19166020820180517bffffffffffffffffffffffffffffffffffffffffffffffffffffffff838183161783525050505062000aca60201b60201c565b50505050565b6001816000016000828254019250508190555050565b60008151905060006a636f6e736f6c652e6c6f679050602083016000808483855afa5050505050565b82805462000b01906200117a565b90600052602060002090601f01602090048101928262000b25576000855562000b71565b82601f1062000b4057805160ff191683800117855562000b71565b8280016001018555821562000b71579182015b8281111562000b7057825182559160200191906001019062000b53565b5b50905062000b80919062000b84565b5090565b5b8082111562000b9f57600081600090555060010162000b85565b5090565b600062000bba62000bb48462001030565b62000ffc565b9050808382526020820190508260005b8581101562000bfe578151850162000be3888262000d1c565b84526020840193506020830192505060018101905062000bca565b5050509392505050565b600062000c1f62000c19846200105f565b62000ffc565b9050808382526020820190508285602086028201111562000c3f57600080fd5b60005b8581101562000c73578162000c58888262000d49565b84526020840193506020830192505060018101905062000c42565b5050509392505050565b600062000c9462000c8e846200108e565b62000ffc565b90508281526020810184848401111562000cad57600080fd5b62000cba84828562001144565b509392505050565b600082601f83011262000cd457600080fd5b815162000ce684826020860162000ba3565b91505092915050565b600082601f83011262000d0157600080fd5b815162000d1384826020860162000c08565b91505092915050565b600082601f83011262000d2e57600080fd5b815162000d4084826020860162000c7d565b91505092915050565b60008151905062000d5a816200124e565b92915050565b60008060008060008060008060008060006101608c8e03121562000d8357600080fd5b60008c015167ffffffffffffffff81111562000d9e57600080fd5b62000dac8e828f0162000cc2565b9b505060208c015167ffffffffffffffff81111562000dca57600080fd5b62000dd88e828f0162000cc2565b9a505060408c015167ffffffffffffffff81111562000df657600080fd5b62000e048e828f0162000cc2565b99505060608c015167ffffffffffffffff81111562000e2257600080fd5b62000e308e828f0162000cc2565b98505060808c015167ffffffffffffffff81111562000e4e57600080fd5b62000e5c8e828f0162000cc2565b97505060a08c015167ffffffffffffffff81111562000e7a57600080fd5b62000e888e828f0162000cef565b96505060c08c015167ffffffffffffffff81111562000ea657600080fd5b62000eb48e828f0162000cef565b95505060e08c015167ffffffffffffffff81111562000ed257600080fd5b62000ee08e828f0162000d1c565b9450506101008c015167ffffffffffffffff81111562000eff57600080fd5b62000f0d8e828f0162000d1c565b93505061012062000f218e828f0162000d49565b92505061014062000f358e828f0162000d49565b9150509295989b509295989b9093969950565b600062000f5582620010c1565b62000f618185620010cc565b935062000f7381856020860162001144565b62000f7e816200123d565b840191505092915050565b62000f94816200113a565b82525050565b6000608082019050818103600083015262000fb6818762000f48565b9050818103602083015262000fcc818662000f48565b905062000fdd604083018562000f89565b818103606083015262000ff1818462000f48565b905095945050505050565b6000604051905081810181811067ffffffffffffffff821117156200102657620010256200120e565b5b8060405250919050565b600067ffffffffffffffff8211156200104e576200104d6200120e565b5b602082029050602081019050919050565b600067ffffffffffffffff8211156200107d576200107c6200120e565b5b602082029050602081019050919050565b600067ffffffffffffffff821115620010ac57620010ab6200120e565b5b601f19601f8301169050602081019050919050565b600081519050919050565b600082825260208201905092915050565b6000620010ea826200113a565b9150620010f7836200113a565b9250827fffffffffffffffffffffffffffffffffffffffffffffffffffffffffffffffff038211156200112f576200112e620011b0565b5b828201905092915050565b6000819050919050565b60005b838110156200116457808201518184015260208101905062001147565b8381111562001174576000848401525b50505050565b600060028204905060018216806200119357607f821691505b60208210811415620011aa57620011a9620011df565b5b50919050565b7f4e487b7100000000000000000000000000000000000000000000000000000000600052601160045260246000fd5b7f4e487b7100000000000000000000000000000000000000000000000000000000600052602260045260246000fd5b7f4e487b7100000000000000000000000000000000000000000000000000000000600052604160045260246000fd5b6000601f19601f8301169050919050565b62001259816200113a565b81146200126557600080fd5b50565b6152a080620012786000396000f3fe608060405234801561001057600080fd5b50600436106101375760003560e01c806395d89b41116100b8578063b953084e1161007c578063b953084e1461036c578063c87b56dd1461038a578063c8cf27f4146103ba578063d4f24c5b146103d8578063e985e9c5146103e2578063f8b81ef71461041257610137565b806395d89b41146102bc57806398da4c95146102da578063a22cb46514610312578063a9c326791461032e578063b88d4fde1461035057610137565b806323b872dd116100ff57806323b872dd146101f457806342842e0e146102105780636352211e1461022c57806370a082311461025c5780637df124a11461028c57610137565b806301ffc9a71461013c5780630665f9611461016c57806306fdde031461018a578063081812fc146101a8578063095ea7b3146101d8575b600080fd5b610156600480360381019061015191906139e9565b61042e565b6040516101639190614811565b60405180910390f35b610174610510565b6040516101819190614baa565b60405180910390f35b61019261066c565b60405161019f919061482c565b60405180910390f35b6101c260048036038101906101bd9190613a3b565b6106fe565b6040516101cf9190614751565b60405180910390f35b6101f260048036038101906101ed91906139ad565b610783565b005b61020e600480360381019061020991906138a7565b61089b565b005b61022a600480360381019061022591906138a7565b6108fb565b005b61024660048036038101906102419190613a3b565b61091b565b6040516102539190614751565b60405180910390f35b61027660048036038101906102719190613842565b6109cd565b6040516102839190614bee565b60405180910390f35b6102a660048036038101906102a19190613842565b610a85565b6040516102b39190614bee565b60405180910390f35b6102c4610a9d565b6040516102d1919061482c565b60405180910390f35b6102f460048036038101906102ef9190613a3b565b610b2f565b60405161030999989796959493929190614c09565b60405180910390f35b61032c60048036038101906103279190613971565b610e25565b005b610336610e3b565b6040516103479594939291906148fb565b60405180910390f35b61036a600480360381019061036591906138f6565b610f6f565b005b610374610fd1565b60405161038191906147ef565b60405180910390f35b6103a4600480360381019061039f9190613a3b565b611333565b6040516103b1919061482c565b60405180910390f35b6103c2611706565b6040516103cf9190614bcc565b60405180910390f35b6103e0611a95565b005b6103fc60048036038101906103f7919061386b565b611e20565b6040516104099190614811565b60405180910390f35b61042c60048036038101906104279190613a3b565b611eb4565b005b60007f80ac58cd000000000000000000000000000000000000000000000000000000007bffffffffffffffffffffffffffffffffffffffffffffffffffffffff1916827bffffffffffffffffffffffffffffffffffffffffffffffffffffffff191614806104f957507f5b5e139f000000000000000000000000000000000000000000000000000000007bffffffffffffffffffffffffffffffffffffffffffffffffffffffff1916827bffffffffffffffffffffffffffffffffffffffffffffffffffffffff1916145b80610509575061050882612644565b5b9050919050565b610518613653565b60096040518060a001604052908160008201805461053590614f9b565b80601f016020809104026020016040519081016040528092919081815260200182805461056190614f9b565b80156105ae5780601f10610583576101008083540402835291602001916105ae565b820191906000526020600020905b81548152906001019060200180831161059157829003601f168201915b505050505081526020016001820180546105c790614f9b565b80601f01602080910402602001604051908101604052809291908181526020018280546105f390614f9b565b80156106405780601f1061061557610100808354040283529160200191610640565b820191906000526020600020905b81548152906001019060200180831161062357829003601f168201915b505050505081526020016002820154815260200160038201548152602001600482015481525050905090565b60606000805461067b90614f9b565b80601f01602080910402602001604051908101604052809291908181526020018280546106a790614f9b565b80156106f45780601f106106c9576101008083540402835291602001916106f4565b820191906000526020600020905b8154815290600101906020018083116106d757829003601f168201915b5050505050905090565b6000610709826126ae565b610748576040517f08c379a000000000000000000000000000000000000000000000000000000000815260040161073f90614b2a565b60405180910390fd5b6004600083815260200190815260200160002060009054906101000a900473ffffffffffffffffffffffffffffffffffffffff169050919050565b600061078e8261091b565b90508073ffffffffffffffffffffffffffffffffffffffff168373ffffffffffffffffffffffffffffffffffffffff1614156107ff576040517f08c379a00000000000000000000000000000000000000000000000000000000081526004016107f690614b6a565b60405180910390fd5b8073ffffffffffffffffffffffffffffffffffffffff1661081e61271a565b73ffffffffffffffffffffffffffffffffffffffff16148061084d575061084c8161084761271a565b611e20565b5b61088c576040517f08c379a000000000000000000000000000000000000000000000000000000000815260040161088390614a8a565b60405180910390fd5b6108968383612722565b505050565b6108ac6108a661271a565b826127db565b6108eb576040517f08c379a00000000000000000000000000000000000000000000000000000000081526004016108e290614b8a565b60405180910390fd5b6108f68383836128b9565b505050565b61091683838360405180602001604052806000815250610f6f565b505050565b6000806002600084815260200190815260200160002060009054906101000a900473ffffffffffffffffffffffffffffffffffffffff169050600073ffffffffffffffffffffffffffffffffffffffff168173ffffffffffffffffffffffffffffffffffffffff1614156109c4576040517f08c379a00000000000000000000000000000000000000000000000000000000081526004016109bb90614aca565b60405180910390fd5b80915050919050565b60008073ffffffffffffffffffffffffffffffffffffffff168273ffffffffffffffffffffffffffffffffffffffff161415610a3e576040517f08c379a0000000000000000000000000000000000000000000000000000000008152600401610a3590614aaa565b60405180910390fd5b600360008373ffffffffffffffffffffffffffffffffffffffff1673ffffffffffffffffffffffffffffffffffffffff168152602001908152602001600020549050919050565b600e6020528060005260406000206000915090505481565b606060018054610aac90614f9b565b80601f0160208091040260200160405190810160405280929190818152602001828054610ad890614f9b565b8015610b255780601f10610afa57610100808354040283529160200191610b25565b820191906000526020600020905b815481529060010190602001808311610b0857829003601f168201915b5050505050905090565b6008602052806000526040600020600091509050806000015490806001018054610b5890614f9b565b80601f0160208091040260200160405190810160405280929190818152602001828054610b8490614f9b565b8015610bd15780601f10610ba657610100808354040283529160200191610bd1565b820191906000526020600020905b815481529060010190602001808311610bb457829003601f168201915b505050505090806002018054610be690614f9b565b80601f0160208091040260200160405190810160405280929190818152602001828054610c1290614f9b565b8015610c5f5780601f10610c3457610100808354040283529160200191610c5f565b820191906000526020600020905b815481529060010190602001808311610c4257829003601f168201915b505050505090806003018054610c7490614f9b565b80601f0160208091040260200160405190810160405280929190818152602001828054610ca090614f9b565b8015610ced5780601f10610cc257610100808354040283529160200191610ced565b820191906000526020600020905b815481529060010190602001808311610cd057829003601f168201915b505050505090806004018054610d0290614f9b565b80601f0160208091040260200160405190810160405280929190818152602001828054610d2e90614f9b565b8015610d7b5780601f10610d5057610100808354040283529160200191610d7b565b820191906000526020600020905b815481529060010190602001808311610d5e57829003601f168201915b505050505090806005018054610d9090614f9b565b80601f0160208091040260200160405190810160405280929190818152602001828054610dbc90614f9b565b8015610e095780601f10610dde57610100808354040283529160200191610e09565b820191906000526020600020905b815481529060010190602001808311610dec57829003601f168201915b5050505050908060060154908060070154908060080154905089565b610e37610e3061271a565b8383612b15565b5050565b6009806000018054610e4c90614f9b565b80601f0160208091040260200160405190810160405280929190818152602001828054610e7890614f9b565b8015610ec55780601f10610e9a57610100808354040283529160200191610ec5565b820191906000526020600020905b815481529060010190602001808311610ea857829003601f168201915b505050505090806001018054610eda90614f9b565b80601f0160208091040260200160405190810160405280929190818152602001828054610f0690614f9b565b8015610f535780601f10610f2857610100808354040283529160200191610f53565b820191906000526020600020905b815481529060010190602001808311610f3657829003601f168201915b5050505050908060020154908060030154908060040154905085565b610f80610f7a61271a565b836127db565b610fbf576040517f08c379a0000000000000000000000000000000000000000000000000000000008152600401610fb690614b8a565b60405180910390fd5b610fcb84848484612c82565b50505050565b60606007805480602002602001604051908101604052809291908181526020016000905b8282101561132a5783829060005260206000209060090201604051806101200160405290816000820154815260200160018201805461103390614f9b565b80601f016020809104026020016040519081016040528092919081815260200182805461105f90614f9b565b80156110ac5780601f10611081576101008083540402835291602001916110ac565b820191906000526020600020905b81548152906001019060200180831161108f57829003601f168201915b505050505081526020016002820180546110c590614f9b565b80601f01602080910402602001604051908101604052809291908181526020018280546110f190614f9b565b801561113e5780601f106111135761010080835404028352916020019161113e565b820191906000526020600020905b81548152906001019060200180831161112157829003601f168201915b5050505050815260200160038201805461115790614f9b565b80601f016020809104026020016040519081016040528092919081815260200182805461118390614f9b565b80156111d05780601f106111a5576101008083540402835291602001916111d0565b820191906000526020600020905b8154815290600101906020018083116111b357829003601f168201915b505050505081526020016004820180546111e990614f9b565b80601f016020809104026020016040519081016040528092919081815260200182805461121590614f9b565b80156112625780601f1061123757610100808354040283529160200191611262565b820191906000526020600020905b81548152906001019060200180831161124557829003601f168201915b5050505050815260200160058201805461127b90614f9b565b80601f01602080910402602001604051908101604052809291908181526020018280546112a790614f9b565b80156112f45780601f106112c9576101008083540402835291602001916112f4565b820191906000526020600020905b8154815290600101906020018083116112d757829003601f168201915b50505050508152602001600682015481526020016007820154815260200160088201548152505081526020019060010190610ff5565b50505050905090565b6060600060086000848152602001908152602001600020604051806101200160405290816000820154815260200160018201805461137090614f9b565b80601f016020809104026020016040519081016040528092919081815260200182805461139c90614f9b565b80156113e95780601f106113be576101008083540402835291602001916113e9565b820191906000526020600020905b8154815290600101906020018083116113cc57829003601f168201915b5050505050815260200160028201805461140290614f9b565b80601f016020809104026020016040519081016040528092919081815260200182805461142e90614f9b565b801561147b5780601f106114505761010080835404028352916020019161147b565b820191906000526020600020905b81548152906001019060200180831161145e57829003601f168201915b5050505050815260200160038201805461149490614f9b565b80601f01602080910402602001604051908101604052809291908181526020018280546114c090614f9b565b801561150d5780601f106114e25761010080835404028352916020019161150d565b820191906000526020600020905b8154815290600101906020018083116114f057829003601f168201915b5050505050815260200160048201805461152690614f9b565b80601f016020809104026020016040519081016040528092919081815260200182805461155290614f9b565b801561159f5780601f106115745761010080835404028352916020019161159f565b820191906000526020600020905b81548152906001019060200180831161158257829003601f168201915b505050505081526020016005820180546115b890614f9b565b80601f01602080910402602001604051908101604052809291908181526020018280546115e490614f9b565b80156116315780601f1061160657610100808354040283529160200191611631565b820191906000526020600020905b81548152906001019060200180831161161457829003601f168201915b505050505081526020016006820154815260200160078201548152602001600882015481525050905060006116698260c00151612cde565b9050600061167a8360e00151612cde565b9050600061168c846101000151612cde565b905060006116d285602001516116a189612cde565b87604001518787876040516020016116be9695949392919061468a565b604051602081830303815290604052612e8b565b90506000816040516020016116e7919061472f565b6040516020818303038152906040529050809650505050505050919050565b61170e613682565b6000600e60003373ffffffffffffffffffffffffffffffffffffffff1673ffffffffffffffffffffffffffffffffffffffff1681526020019081526020016000205490506000811115611a845760086000828152602001908152602001600020604051806101200160405290816000820154815260200160018201805461179490614f9b565b80601f01602080910402602001604051908101604052809291908181526020018280546117c090614f9b565b801561180d5780601f106117e25761010080835404028352916020019161180d565b820191906000526020600020905b8154815290600101906020018083116117f057829003601f168201915b5050505050815260200160028201805461182690614f9b565b80601f016020809104026020016040519081016040528092919081815260200182805461185290614f9b565b801561189f5780601f106118745761010080835404028352916020019161189f565b820191906000526020600020905b81548152906001019060200180831161188257829003601f168201915b505050505081526020016003820180546118b890614f9b565b80601f01602080910402602001604051908101604052809291908181526020018280546118e490614f9b565b80156119315780601f1061190657610100808354040283529160200191611931565b820191906000526020600020905b81548152906001019060200180831161191457829003601f168201915b5050505050815260200160048201805461194a90614f9b565b80601f016020809104026020016040519081016040528092919081815260200182805461197690614f9b565b80156119c35780601f10611998576101008083540402835291602001916119c3565b820191906000526020600020905b8154815290600101906020018083116119a657829003601f168201915b505050505081526020016005820180546119dc90614f9b565b80601f0160208091040260200160405190810160405280929190818152602001828054611a0890614f9b565b8015611a555780601f10611a2a57610100808354040283529160200191611a55565b820191906000526020600020905b815481529060010190602001808311611a3857829003601f168201915b505050505081526020016006820154815260200160078201548152602001600882015481525050915050611a92565b611a8c613682565b80925050505b90565b6000600e60003373ffffffffffffffffffffffffffffffffffffffff1673ffffffffffffffffffffffffffffffffffffffff1681526020019081526020016000205490506000600860008381526020019081526020016000209050611ba86040518060600160405280603f81526020016151fe603f9139826001018054611b1b90614f9b565b80601f0160208091040260200160405190810160405280929190818152602001828054611b4790614f9b565b8015611b945780601f10611b6957610100808354040283529160200191611b94565b820191906000526020600020905b815481529060010190602001808311611b7757829003601f168201915b505050505083600601548460080154613049565b611c806040518060400160405280601e81526020017f426f73732025732068617320257320485020616e64202573204c6576656c000081525060096000018054611bf190614f9b565b80601f0160208091040260200160405190810160405280929190818152602001828054611c1d90614f9b565b8015611c6a5780601f10611c3f57610100808354040283529160200191611c6a565b820191906000526020600020905b815481529060010190602001808311611c4d57829003601f168201915b5050505050600960020154600960040154613049565b6000816006015411611cc7576040517f08c379a0000000000000000000000000000000000000000000000000000000008152600401611cbe90614aea565b60405180910390fd5b600060096002015411611d0f576040517f08c379a0000000000000000000000000000000000000000000000000000000008152600401611d06906149ea565b60405180910390fd5b80600801546009600201541015611d30576000600960020181905550611d4f565b8060080154600960020154611d459190614eb1565b6009600201819055505b60096004015481600601541015611d6f5760008160060181905550611d8d565b6009600401548160060154611d849190614eb1565b81600601819055505b611db4604051806060016040528060258152602001615171602591396009600201546130eb565b611dda6040518060600160405280602881526020016151d66028913982600601546130eb565b7f838ab28464562786a6c4ab2311964b82fa60bd9b14aa7e856af1f3f18d41a4146009600201548260060154604051611e14929190614cb9565b60405180910390a15050565b6000600560008473ffffffffffffffffffffffffffffffffffffffff1673ffffffffffffffffffffffffffffffffffffffff16815260200190815260200160002060008373ffffffffffffffffffffffffffffffffffffffff1673ffffffffffffffffffffffffffffffffffffffff16815260200190815260200160002060009054906101000a900460ff16905092915050565b6000611ec06006613187565b9050611ecc3382613195565b60405180610120016040528083815260200160078481548110611f18577f4e487b7100000000000000000000000000000000000000000000000000000000600052603260045260246000fd5b90600052602060002090600902016001018054611f3490614f9b565b80601f0160208091040260200160405190810160405280929190818152602001828054611f6090614f9b565b8015611fad5780601f10611f8257610100808354040283529160200191611fad565b820191906000526020600020905b815481529060010190602001808311611f9057829003601f168201915b5050505050815260200160078481548110611ff1577f4e487b7100000000000000000000000000000000000000000000000000000000600052603260045260246000fd5b9060005260206000209060090201600201805461200d90614f9b565b80601f016020809104026020016040519081016040528092919081815260200182805461203990614f9b565b80156120865780601f1061205b57610100808354040283529160200191612086565b820191906000526020600020905b81548152906001019060200180831161206957829003601f168201915b50505050508152602001600784815481106120ca577f4e487b7100000000000000000000000000000000000000000000000000000000600052603260045260246000fd5b906000526020600020906009020160030180546120e690614f9b565b80601f016020809104026020016040519081016040528092919081815260200182805461211290614f9b565b801561215f5780601f106121345761010080835404028352916020019161215f565b820191906000526020600020905b81548152906001019060200180831161214257829003601f168201915b50505050508152602001600784815481106121a3577f4e487b7100000000000000000000000000000000000000000000000000000000600052603260045260246000fd5b906000526020600020906009020160040180546121bf90614f9b565b80601f01602080910402602001604051908101604052809291908181526020018280546121eb90614f9b565b80156122385780601f1061220d57610100808354040283529160200191612238565b820191906000526020600020905b81548152906001019060200180831161221b57829003601f168201915b505050505081526020016007848154811061227c577f4e487b7100000000000000000000000000000000000000000000000000000000600052603260045260246000fd5b9060005260206000209060090201600501805461229890614f9b565b80601f01602080910402602001604051908101604052809291908181526020018280546122c490614f9b565b80156123115780601f106122e657610100808354040283529160200191612311565b820191906000526020600020905b8154815290600101906020018083116122f457829003601f168201915b5050505050815260200160078481548110612355577f4e487b7100000000000000000000000000000000000000000000000000000000600052603260045260246000fd5b9060005260206000209060090201600601548152602001600784815481106123a6577f4e487b7100000000000000000000000000000000000000000000000000000000600052603260045260246000fd5b9060005260206000209060090201600701548152602001600784815481106123f7577f4e487b7100000000000000000000000000000000000000000000000000000000600052603260045260246000fd5b906000526020600020906009020160080154815250600860008381526020019081526020016000206000820151816000015560208201518160010190805190602001906124459291906136ce565b5060408201518160020190805190602001906124629291906136ce565b50606082015181600301908051906020019061247f9291906136ce565b50608082015181600401908051906020019061249c9291906136ce565b5060a08201518160050190805190602001906124b99291906136ce565b5060c0820151816006015560e0820151816007015561010082015181600801559050506124ff6040518060600160405280602e815260200161523d602e913982846131b3565b80600e60003373ffffffffffffffffffffffffffffffffffffffff1673ffffffffffffffffffffffffffffffffffffffff1681526020019081526020016000208190555061254d600661262e565b7f4bc303fd457a97b4691b9af582ce71868a3d258638c8d4f8c60988a0f0bfb8cd338284604051612580939291906147b8565b60405180910390a15050565b612628848484846040516024016125a6949392919061484e565b6040516020818303038152906040527f8d142cdd000000000000000000000000000000000000000000000000000000007bffffffffffffffffffffffffffffffffffffffffffffffffffffffff19166020820180517bffffffffffffffffffffffffffffffffffffffffffffffffffffffff8381831617835250505050613252565b50505050565b6001816000016000828254019250508190555050565b60007f01ffc9a7000000000000000000000000000000000000000000000000000000007bffffffffffffffffffffffffffffffffffffffffffffffffffffffff1916827bffffffffffffffffffffffffffffffffffffffffffffffffffffffff1916149050919050565b60008073ffffffffffffffffffffffffffffffffffffffff166002600084815260200190815260200160002060009054906101000a900473ffffffffffffffffffffffffffffffffffffffff1673ffffffffffffffffffffffffffffffffffffffff1614159050919050565b600033905090565b816004600083815260200190815260200160002060006101000a81548173ffffffffffffffffffffffffffffffffffffffff021916908373ffffffffffffffffffffffffffffffffffffffff160217905550808273ffffffffffffffffffffffffffffffffffffffff166127958361091b565b73ffffffffffffffffffffffffffffffffffffffff167f8c5be1e5ebec7d5bd14f71427d1e84f3dd0314c0f7b2291e5b200ac8c7c3b92560405160405180910390a45050565b60006127e6826126ae565b612825576040517f08c379a000000000000000000000000000000000000000000000000000000000815260040161281c90614a6a565b60405180910390fd5b60006128308361091b565b90508073ffffffffffffffffffffffffffffffffffffffff168473ffffffffffffffffffffffffffffffffffffffff16148061289f57508373ffffffffffffffffffffffffffffffffffffffff16612887846106fe565b73ffffffffffffffffffffffffffffffffffffffff16145b806128b057506128af8185611e20565b5b91505092915050565b8273ffffffffffffffffffffffffffffffffffffffff166128d98261091b565b73ffffffffffffffffffffffffffffffffffffffff161461292f576040517f08c379a000000000000000000000000000000000000000000000000000000000815260040161292690614b4a565b60405180910390fd5b600073ffffffffffffffffffffffffffffffffffffffff168273ffffffffffffffffffffffffffffffffffffffff16141561299f576040517f08c379a000000000000000000000000000000000000000000000000000000000815260040161299690614a2a565b60405180910390fd5b6129aa83838361327b565b6129b5600082612722565b6001600360008573ffffffffffffffffffffffffffffffffffffffff1673ffffffffffffffffffffffffffffffffffffffff1681526020019081526020016000206000828254612a059190614eb1565b925050819055506001600360008473ffffffffffffffffffffffffffffffffffffffff1673ffffffffffffffffffffffffffffffffffffffff1681526020019081526020016000206000828254612a5c9190614dd0565b92505081905550816002600083815260200190815260200160002060006101000a81548173ffffffffffffffffffffffffffffffffffffffff021916908373ffffffffffffffffffffffffffffffffffffffff160217905550808273ffffffffffffffffffffffffffffffffffffffff168473ffffffffffffffffffffffffffffffffffffffff167fddf252ad1be2c89b69c2b068fc378daa952ba7f163c4a11628f55a4df523b3ef60405160405180910390a4505050565b8173ffffffffffffffffffffffffffffffffffffffff168373ffffffffffffffffffffffffffffffffffffffff161415612b84576040517f08c379a0000000000000000000000000000000000000000000000000000000008152600401612b7b90614a4a565b60405180910390fd5b80600560008573ffffffffffffffffffffffffffffffffffffffff1673ffffffffffffffffffffffffffffffffffffffff16815260200190815260200160002060008473ffffffffffffffffffffffffffffffffffffffff1673ffffffffffffffffffffffffffffffffffffffff16815260200190815260200160002060006101000a81548160ff0219169083151502179055508173ffffffffffffffffffffffffffffffffffffffff168373ffffffffffffffffffffffffffffffffffffffff167f17307eab39ab6107e8899845ad3d59bd9653f200f220920489ca2b5937696c3183604051612c759190614811565b60405180910390a3505050565b612c8d8484846128b9565b612c9984848484613280565b612cd8576040517f08c379a0000000000000000000000000000000000000000000000000000000008152600401612ccf906149ca565b60405180910390fd5b50505050565b60606000821415612d26576040518060400160405280600181526020017f30000000000000000000000000000000000000000000000000000000000000008152509050612e86565b600082905060005b60008214612d58578080612d4190614fcd565b915050600a82612d519190614e26565b9150612d2e565b60008167ffffffffffffffff811115612d9a577f4e487b7100000000000000000000000000000000000000000000000000000000600052604160045260246000fd5b6040519080825280601f01601f191660200182016040528015612dcc5781602001600182028036833780820191505090505b5090505b60008514612e7f57600182612de59190614eb1565b9150600a85612df49190615016565b6030612e009190614dd0565b60f81b818381518110612e3c577f4e487b7100000000000000000000000000000000000000000000000000000000600052603260045260246000fd5b60200101907effffffffffffffffffffffffffffffffffffffffffffffffffffffffffffff1916908160001a905350600a85612e789190614e26565b9450612dd0565b8093505050505b919050565b60606000825190506000811415612eb45760405180602001604052806000815250915050613044565b60006003600283612ec59190614dd0565b612ecf9190614e26565b6004612edb9190614e57565b90506000602082612eec9190614dd0565b67ffffffffffffffff811115612f2b577f4e487b7100000000000000000000000000000000000000000000000000000000600052604160045260246000fd5b6040519080825280601f01601f191660200182016040528015612f5d5781602001600182028036833780820191505090505b5090506000604051806060016040528060408152602001615196604091399050600181016020830160005b868110156130015760038101905062ffffff818a015116603f8160121c168401518060081b905060ff603f83600c1c1686015116810190508060081b905060ff603f8360061c1686015116810190508060081b905060ff603f831686015116810190508060e01b90508084526004840193505050612f88565b50600386066001811461301b576002811461302b57613036565b613d3d60f01b6002830352613036565b603d60f81b60018303525b508484525050819450505050505b919050565b6130e58484848460405160240161306394939291906148a8565b6040516020818303038152906040527fd5cf17d0000000000000000000000000000000000000000000000000000000007bffffffffffffffffffffffffffffffffffffffffffffffffffffffff19166020820180517bffffffffffffffffffffffffffffffffffffffffffffffffffffffff8381831617835250505050613252565b50505050565b613183828260405160240161310192919061495c565b6040516020818303038152906040527f9710a9d0000000000000000000000000000000000000000000000000000000007bffffffffffffffffffffffffffffffffffffffffffffffffffffffff19166020820180517bffffffffffffffffffffffffffffffffffffffffffffffffffffffff8381831617835250505050613252565b5050565b600081600001549050919050565b6131af828260405180602001604052806000815250613417565b5050565b61324d8383836040516024016131cb9392919061498c565b6040516020818303038152906040527f969cdd03000000000000000000000000000000000000000000000000000000007bffffffffffffffffffffffffffffffffffffffffffffffffffffffff19166020820180517bffffffffffffffffffffffffffffffffffffffffffffffffffffffff8381831617835250505050613252565b505050565b60008151905060006a636f6e736f6c652e6c6f679050602083016000808483855afa5050505050565b505050565b60006132a18473ffffffffffffffffffffffffffffffffffffffff16613472565b1561340a578373ffffffffffffffffffffffffffffffffffffffff1663150b7a026132ca61271a565b8786866040518563ffffffff1660e01b81526004016132ec949392919061476c565b602060405180830381600087803b15801561330657600080fd5b505af192505050801561333757506040513d601f19601f820116820180604052508101906133349190613a12565b60015b6133ba573d8060008114613367576040519150601f19603f3d011682016040523d82523d6000602084013e61336c565b606091505b506000815114156133b2576040517f08c379a00000000000000000000000000000000000000000000000000000000081526004016133a9906149ca565b60405180910390fd5b805181602001fd5b63150b7a0260e01b7bffffffffffffffffffffffffffffffffffffffffffffffffffffffff1916817bffffffffffffffffffffffffffffffffffffffffffffffffffffffff19161491505061340f565b600190505b949350505050565b6134218383613485565b61342e6000848484613280565b61346d576040517f08c379a0000000000000000000000000000000000000000000000000000000008152600401613464906149ca565b60405180910390fd5b505050565b600080823b905060008111915050919050565b600073ffffffffffffffffffffffffffffffffffffffff168273ffffffffffffffffffffffffffffffffffffffff1614156134f5576040517f08c379a00000000000000000000000000000000000000000000000000000000081526004016134ec90614b0a565b60405180910390fd5b6134fe816126ae565b1561353e576040517f08c379a000000000000000000000000000000000000000000000000000000000815260040161353590614a0a565b60405180910390fd5b61354a6000838361327b565b6001600360008473ffffffffffffffffffffffffffffffffffffffff1673ffffffffffffffffffffffffffffffffffffffff168152602001908152602001600020600082825461359a9190614dd0565b92505081905550816002600083815260200190815260200160002060006101000a81548173ffffffffffffffffffffffffffffffffffffffff021916908373ffffffffffffffffffffffffffffffffffffffff160217905550808273ffffffffffffffffffffffffffffffffffffffff16600073ffffffffffffffffffffffffffffffffffffffff167fddf252ad1be2c89b69c2b068fc378daa952ba7f163c4a11628f55a4df523b3ef60405160405180910390a45050565b6040518060a0016040528060608152602001606081526020016000815260200160008152602001600081525090565b6040518061012001604052806000815260200160608152602001606081526020016060815260200160608152602001606081526020016000815260200160008152602001600081525090565b8280546136da90614f9b565b90600052602060002090601f0160209004810192826136fc5760008555613743565b82601f1061371557805160ff1916838001178555613743565b82800160010185558215613743579182015b82811115613742578251825591602001919060010190613727565b5b5090506137509190613754565b5090565b5b8082111561376d576000816000905550600101613755565b5090565b600061378461377f84614d13565b614ce2565b90508281526020810184848401111561379c57600080fd5b6137a7848285614f59565b509392505050565b6000813590506137be81615114565b92915050565b6000813590506137d38161512b565b92915050565b6000813590506137e881615142565b92915050565b6000815190506137fd81615142565b92915050565b600082601f83011261381457600080fd5b8135613824848260208601613771565b91505092915050565b60008135905061383c81615159565b92915050565b60006020828403121561385457600080fd5b6000613862848285016137af565b91505092915050565b6000806040838503121561387e57600080fd5b600061388c858286016137af565b925050602061389d858286016137af565b9150509250929050565b6000806000606084860312156138bc57600080fd5b60006138ca868287016137af565b93505060206138db868287016137af565b92505060406138ec8682870161382d565b9150509250925092565b6000806000806080858703121561390c57600080fd5b600061391a878288016137af565b945050602061392b878288016137af565b935050604061393c8782880161382d565b925050606085013567ffffffffffffffff81111561395957600080fd5b61396587828801613803565b91505092959194509250565b6000806040838503121561398457600080fd5b6000613992858286016137af565b92505060206139a3858286016137c4565b9150509250929050565b600080604083850312156139c057600080fd5b60006139ce858286016137af565b92505060206139df8582860161382d565b9150509250929050565b6000602082840312156139fb57600080fd5b6000613a09848285016137d9565b91505092915050565b600060208284031215613a2457600080fd5b6000613a32848285016137ee565b91505092915050565b600060208284031215613a4d57600080fd5b6000613a5b8482850161382d565b91505092915050565b6000613a7083836144aa565b905092915050565b613a8181614ee5565b82525050565b6000613a9282614d53565b613a9c8185614d81565b935083602082028501613aae85614d43565b8060005b85811015613aea5784840389528151613acb8582613a64565b9450613ad683614d74565b925060208a01995050600181019050613ab2565b50829750879550505050505092915050565b613b0581614ef7565b82525050565b6000613b1682614d5e565b613b208185614d92565b9350613b30818560208601614f68565b613b3981615103565b840191505092915050565b6000613b4f82614d69565b613b598185614da3565b9350613b69818560208601614f68565b613b7281615103565b840191505092915050565b6000613b8882614d69565b613b928185614db4565b9350613ba2818560208601614f68565b613bab81615103565b840191505092915050565b6000613bc182614d69565b613bcb8185614dc5565b9350613bdb818560208601614f68565b80840191505092915050565b6000613bf4600b83614dc5565b91507f202d2d204e465420233a200000000000000000000000000000000000000000006000830152600b82019050919050565b6000613c34603283614db4565b91507f4552433732313a207472616e7366657220746f206e6f6e20455243373231526560008301527f63656976657220696d706c656d656e74657200000000000000000000000000006020830152604082019050919050565b6000613c9a602883614db4565b91507f4572726f723a20626f7373206d757374206861766520485020746f206174746160008301527f636b20626f73732e0000000000000000000000000000000000000000000000006020830152604082019050919050565b6000613d00601c83614db4565b91507f4552433732313a20746f6b656e20616c7265616479206d696e746564000000006000830152602082019050919050565b6000613d40600e83614dc5565b91507f2c20226d61785f76616c7565223a0000000000000000000000000000000000006000830152600e82019050919050565b6000613d80602483614db4565b91507f4552433732313a207472616e7366657220746f20746865207a65726f2061646460008301527f72657373000000000000000000000000000000000000000000000000000000006020830152604082019050919050565b6000613de6601983614db4565b91507f4552433732313a20617070726f766520746f2063616c6c6572000000000000006000830152602082019050919050565b6000613e26602c83614db4565b91507f4552433732313a206f70657261746f7220717565727920666f72206e6f6e657860008301527f697374656e7420746f6b656e00000000000000000000000000000000000000006020830152604082019050919050565b6000613e8c603883614db4565b91507f4552433732313a20617070726f76652063616c6c6572206973206e6f74206f7760008301527f6e6572206e6f7220617070726f76656420666f7220616c6c00000000000000006020830152604082019050919050565b6000613ef2602a83614db4565b91507f4552433732313a2062616c616e636520717565727920666f7220746865207a6560008301527f726f2061646472657373000000000000000000000000000000000000000000006020830152604082019050919050565b6000613f58602983614db4565b91507f4552433732313a206f776e657220717565727920666f72206e6f6e657869737460008301527f656e7420746f6b656e00000000000000000000000000000000000000000000006020830152604082019050919050565b6000613fbe602583614dc5565b91507f7d2c207b202274726169745f74797065223a20224c6576656c222c202276616c60008301527f7565223a200000000000000000000000000000000000000000000000000000006020830152602582019050919050565b6000614024606283614dc5565b91507f222c20226465736372697074696f6e223a20225468697320697320616e204e4660008301527f542074686174206c6574732070656f706c6520706c617920696e20746865206760208301527f616d65204d657461766572736520536c6179657221222c2022696d616765223a60408301527f20220000000000000000000000000000000000000000000000000000000000006060830152606282019050919050565b60006140d6602d83614db4565b91507f4572726f723a20636861726163746572206d757374206861766520485020746f60008301527f2061747461636b20626f73732e000000000000000000000000000000000000006020830152604082019050919050565b600061413c600483614dc5565b91507f7d205d7d000000000000000000000000000000000000000000000000000000006000830152600482019050919050565b600061417c602083614db4565b91507f4552433732313a206d696e7420746f20746865207a65726f20616464726573736000830152602082019050919050565b60006141bc602c83614db4565b91507f4552433732313a20617070726f76656420717565727920666f72206e6f6e657860008301527f697374656e7420746f6b656e00000000000000000000000000000000000000006020830152604082019050919050565b6000614222602983614db4565b91507f4552433732313a207472616e73666572206f6620746f6b656e2074686174206960008301527f73206e6f74206f776e00000000000000000000000000000000000000000000006020830152604082019050919050565b6000614288600a83614dc5565b91507f7b226e616d65223a2022000000000000000000000000000000000000000000006000830152600a82019050919050565b60006142c8602183614db4565b91507f4552433732313a20617070726f76616c20746f2063757272656e74206f776e6560008301527f72000000000000000000000000000000000000000000000000000000000000006020830152604082019050919050565b600061432e601d83614dc5565b91507f646174613a6170706c69636174696f6e2f6a736f6e3b6261736536342c0000006000830152601d82019050919050565b600061436e603183614db4565b91507f4552433732313a207472616e736665722063616c6c6572206973206e6f74206f60008301527f776e6572206e6f7220617070726f7665640000000000000000000000000000006020830152604082019050919050565b60006143d4603d83614dc5565b91507f222c202261747472696275746573223a205b207b202274726169745f7479706560008301527f223a20224865616c746820506f696e7473222c202276616c7565223a200000006020830152603d82019050919050565b600060a083016000830151848203600086015261444a8282613b44565b915050602083015184820360208601526144648282613b44565b9150506040830151614479604086018261466c565b50606083015161448c606086018261466c565b50608083015161449f608086018261466c565b508091505092915050565b6000610120830160008301516144c3600086018261466c565b50602083015184820360208601526144db8282613b44565b915050604083015184820360408601526144f58282613b44565b9150506060830151848203606086015261450f8282613b44565b915050608083015184820360808601526145298282613b44565b91505060a083015184820360a08601526145438282613b44565b91505060c083015161455860c086018261466c565b5060e083015161456b60e086018261466c565b5061010083015161458061010086018261466c565b508091505092915050565b6000610120830160008301516145a4600086018261466c565b50602083015184820360208601526145bc8282613b44565b915050604083015184820360408601526145d68282613b44565b915050606083015184820360608601526145f08282613b44565b9150506080830151848203608086015261460a8282613b44565b91505060a083015184820360a08601526146248282613b44565b91505060c083015161463960c086018261466c565b5060e083015161464c60e086018261466c565b5061010083015161466161010086018261466c565b508091505092915050565b61467581614f4f565b82525050565b61468481614f4f565b82525050565b60006146958261427b565b91506146a18289613bb6565b91506146ac82613be7565b91506146b88288613bb6565b91506146c382614017565b91506146cf8287613bb6565b91506146da826143c7565b91506146e68286613bb6565b91506146f182613d33565b91506146fd8285613bb6565b915061470882613fb1565b91506147148284613bb6565b915061471f8261412f565b9150819050979650505050505050565b600061473a82614321565b91506147468284613bb6565b915081905092915050565b60006020820190506147666000830184613a78565b92915050565b60006080820190506147816000830187613a78565b61478e6020830186613a78565b61479b604083018561467b565b81810360608301526147ad8184613b0b565b905095945050505050565b60006060820190506147cd6000830186613a78565b6147da602083018561467b565b6147e7604083018461467b565b949350505050565b600060208201905081810360008301526148098184613a87565b905092915050565b60006020820190506148266000830184613afc565b92915050565b600060208201905081810360008301526148468184613b7d565b905092915050565b600060808201905081810360008301526148688187613b7d565b9050818103602083015261487c8186613b7d565b905061488b604083018561467b565b818103606083015261489d8184613b7d565b905095945050505050565b600060808201905081810360008301526148c28187613b7d565b905081810360208301526148d68186613b7d565b90506148e5604083018561467b565b6148f2606083018461467b565b95945050505050565b600060a08201905081810360008301526149158188613b7d565b905081810360208301526149298187613b7d565b9050614938604083018661467b565b614945606083018561467b565b614952608083018461467b565b9695505050505050565b600060408201905081810360008301526149768185613b7d565b9050614985602083018461467b565b9392505050565b600060608201905081810360008301526149a68186613b7d565b90506149b5602083018561467b565b6149c2604083018461467b565b949350505050565b600060208201905081810360008301526149e381613c27565b9050919050565b60006020820190508181036000830152614a0381613c8d565b9050919050565b60006020820190508181036000830152614a2381613cf3565b9050919050565b60006020820190508181036000830152614a4381613d73565b9050919050565b60006020820190508181036000830152614a6381613dd9565b9050919050565b60006020820190508181036000830152614a8381613e19565b9050919050565b60006020820190508181036000830152614aa381613e7f565b9050919050565b60006020820190508181036000830152614ac381613ee5565b9050919050565b60006020820190508181036000830152614ae381613f4b565b9050919050565b60006020820190508181036000830152614b03816140c9565b9050919050565b60006020820190508181036000830152614b238161416f565b9050919050565b60006020820190508181036000830152614b43816141af565b9050919050565b60006020820190508181036000830152614b6381614215565b9050919050565b60006020820190508181036000830152614b83816142bb565b9050919050565b60006020820190508181036000830152614ba381614361565b9050919050565b60006020820190508181036000830152614bc4818461442d565b905092915050565b60006020820190508181036000830152614be6818461458b565b905092915050565b6000602082019050614c03600083018461467b565b92915050565b600061012082019050614c1f600083018c61467b565b8181036020830152614c31818b613b7d565b90508181036040830152614c45818a613b7d565b90508181036060830152614c598189613b7d565b90508181036080830152614c6d8188613b7d565b905081810360a0830152614c818187613b7d565b9050614c9060c083018661467b565b614c9d60e083018561467b565b614cab61010083018461467b565b9a9950505050505050505050565b6000604082019050614cce600083018561467b565b614cdb602083018461467b565b9392505050565b6000604051905081810181811067ffffffffffffffff82111715614d0957614d086150d4565b5b8060405250919050565b600067ffffffffffffffff821115614d2e57614d2d6150d4565b5b601f19601f8301169050602081019050919050565b6000819050602082019050919050565b600081519050919050565b600081519050919050565b600081519050919050565b6000602082019050919050565b600082825260208201905092915050565b600082825260208201905092915050565b600082825260208201905092915050565b600082825260208201905092915050565b600081905092915050565b6000614ddb82614f4f565b9150614de683614f4f565b9250827fffffffffffffffffffffffffffffffffffffffffffffffffffffffffffffffff03821115614e1b57614e1a615047565b5b828201905092915050565b6000614e3182614f4f565b9150614e3c83614f4f565b925082614e4c57614e4b615076565b5b828204905092915050565b6000614e6282614f4f565b9150614e6d83614f4f565b9250817fffffffffffffffffffffffffffffffffffffffffffffffffffffffffffffffff0483118215151615614ea657614ea5615047565b5b828202905092915050565b6000614ebc82614f4f565b9150614ec783614f4f565b925082821015614eda57614ed9615047565b5b828203905092915050565b6000614ef082614f2f565b9050919050565b60008115159050919050565b60007fffffffff0000000000000000000000000000000000000000000000000000000082169050919050565b600073ffffffffffffffffffffffffffffffffffffffff82169050919050565b6000819050919050565b82818337600083830152505050565b60005b83811015614f86578082015181840152602081019050614f6b565b83811115614f95576000848401525b50505050565b60006002820490506001821680614fb357607f821691505b60208210811415614fc757614fc66150a5565b5b50919050565b6000614fd882614f4f565b91507fffffffffffffffffffffffffffffffffffffffffffffffffffffffffffffffff82141561500b5761500a615047565b5b600182019050919050565b600061502182614f4f565b915061502c83614f4f565b92508261503c5761503b615076565b5b828206905092915050565b7f4e487b7100000000000000000000000000000000000000000000000000000000600052601160045260246000fd5b7f4e487b7100000000000000000000000000000000000000000000000000000000600052601260045260246000fd5b7f4e487b7100000000000000000000000000000000000000000000000000000000600052602260045260246000fd5b7f4e487b7100000000000000000000000000000000000000000000000000000000600052604160045260246000fd5b6000601f19601f8301169050919050565b61511d81614ee5565b811461512857600080fd5b50565b61513481614ef7565b811461513f57600080fd5b50565b61514b81614f03565b811461515657600080fd5b50565b61516281614f4f565b811461516d57600080fd5b5056fe506c617965722061747461636b656420626f73732e204e657720626f73732068703a2025734142434445464748494a4b4c4d4e4f505152535455565758595a6162636465666768696a6b6c6d6e6f707172737475767778797a303132333435363738392b2f426f73732061747461636b656420706c617965722e204e657720706c617965722068703a2025730a0a506c6179657220772f206368617261637465722025732061626f757420746f2061747461636b2e2048617320257320485020616e64202573204c6576656c4d696e746564204e465420772f20746f6b656e496420257320616e6420636861726163746572496e646578202573a2646970667358221220b344c4644138c106be62338df3dc24a0129b6b818a150a774a3e52000be0ed2664736f6c63430008000033446f6e6520696e697469616c697a696e6720257320772f2048502025732c20696d67202573446f6e6520696e697469616c697a696e6720626f737320257320772f2048502025732c20696d67202573",
  "linkReferences": {},
  "deployedLinkReferences": {}
}